{
  "_format": "hh3-artifact-1",
  "contractName": "PaymentTracking",
  "sourceName": "contracts/PaymentTracking.sol",
  "abi": [
    {
      "anonymous": false,
      "inputs": [
        {
          "indexed": true,
          "internalType": "string",
          "name": "id",
          "type": "string"
        },
        {
          "indexed": true,
          "internalType": "address",
          "name": "issuer",
          "type": "address"
        }
      ],
      "name": "InvoiceCancelled",
      "type": "event"
    },
    {
      "anonymous": false,
      "inputs": [
        {
          "indexed": true,
          "internalType": "string",
          "name": "id",
          "type": "string"
        },
        {
          "indexed": true,
          "internalType": "address",
          "name": "issuer",
          "type": "address"
        },
        {
          "indexed": true,
          "internalType": "address",
          "name": "recipient",
          "type": "address"
        },
        {
          "indexed": false,
          "internalType": "uint256",
          "name": "amount",
          "type": "uint256"
        },
        {
          "indexed": false,
          "internalType": "uint256",
          "name": "dueDate",
          "type": "uint256"
        }
      ],
      "name": "InvoiceCreated",
      "type": "event"
    },
    {
      "anonymous": false,
      "inputs": [
        {
          "indexed": true,
          "internalType": "string",
          "name": "id",
          "type": "string"
        },
        {
          "indexed": true,
          "internalType": "address",
          "name": "issuer",
          "type": "address"
        }
      ],
      "name": "InvoiceOverdue",
      "type": "event"
    },
    {
      "anonymous": false,
      "inputs": [
        {
          "indexed": true,
          "internalType": "string",
          "name": "id",
          "type": "string"
        },
        {
          "indexed": true,
          "internalType": "address",
          "name": "payer",
          "type": "address"
        },
        {
          "indexed": false,
          "internalType": "uint256",
          "name": "paidAmount",
          "type": "uint256"
        },
        {
          "indexed": false,
          "internalType": "uint256",
          "name": "paidAt",
          "type": "uint256"
        }
      ],
      "name": "InvoicePaid",
      "type": "event"
    },
    {
      "inputs": [
        {
          "internalType": "string",
          "name": "id",
          "type": "string"
        },
        {
          "internalType": "address",
          "name": "issuer",
          "type": "address"
        }
      ],
      "name": "cancelInvoice",
      "outputs": [],
      "stateMutability": "nonpayable",
      "type": "function"
    },
    {
      "inputs": [
        {
          "internalType": "string",
          "name": "id",
          "type": "string"
        },
        {
          "internalType": "address",
          "name": "issuer",
          "type": "address"
        },
        {
          "internalType": "address",
          "name": "recipient",
          "type": "address"
        },
        {
          "internalType": "string",
          "name": "description",
          "type": "string"
        },
        {
          "internalType": "uint256",
          "name": "amount",
          "type": "uint256"
        },
        {
          "internalType": "uint256",
          "name": "dueDate",
          "type": "uint256"
        }
      ],
      "name": "createInvoice",
      "outputs": [],
      "stateMutability": "nonpayable",
      "type": "function"
    },
    {
      "inputs": [
        {
          "internalType": "string",
          "name": "id",
          "type": "string"
        }
      ],
      "name": "getInvoice",
      "outputs": [
        {
          "components": [
            {
              "internalType": "address",
              "name": "issuer",
              "type": "address"
            },
            {
              "internalType": "address",
              "name": "recipient",
              "type": "address"
            },
            {
              "internalType": "string",
              "name": "description",
              "type": "string"
            },
            {
              "internalType": "uint256",
              "name": "amount",
              "type": "uint256"
            },
            {
              "internalType": "uint256",
              "name": "paidAmount",
              "type": "uint256"
            },
            {
              "internalType": "enum PaymentTracking.InvoiceStatus",
              "name": "status",
              "type": "uint8"
            },
            {
              "internalType": "uint256",
              "name": "dueDate",
              "type": "uint256"
            },
            {
              "internalType": "uint256",
              "name": "createdAt",
              "type": "uint256"
            },
            {
              "internalType": "uint256",
              "name": "paidAt",
              "type": "uint256"
            }
          ],
          "internalType": "struct PaymentTracking.Invoice",
          "name": "",
          "type": "tuple"
        }
      ],
      "stateMutability": "view",
      "type": "function"
    },
    {
      "inputs": [],
      "name": "getTotalOutstanding",
      "outputs": [
        {
          "internalType": "uint256",
          "name": "",
          "type": "uint256"
        }
      ],
      "stateMutability": "view",
      "type": "function"
    },
    {
      "inputs": [
        {
          "internalType": "uint256",
          "name": "",
          "type": "uint256"
        }
      ],
      "name": "invoiceIds",
      "outputs": [
        {
          "internalType": "string",
          "name": "",
          "type": "string"
        }
      ],
      "stateMutability": "view",
      "type": "function"
    },
    {
      "inputs": [
        {
          "internalType": "string",
          "name": "",
          "type": "string"
        }
      ],
      "name": "invoices",
      "outputs": [
        {
          "internalType": "address",
          "name": "issuer",
          "type": "address"
        },
        {
          "internalType": "address",
          "name": "recipient",
          "type": "address"
        },
        {
          "internalType": "string",
          "name": "description",
          "type": "string"
        },
        {
          "internalType": "uint256",
          "name": "amount",
          "type": "uint256"
        },
        {
          "internalType": "uint256",
          "name": "paidAmount",
          "type": "uint256"
        },
        {
          "internalType": "enum PaymentTracking.InvoiceStatus",
          "name": "status",
          "type": "uint8"
        },
        {
          "internalType": "uint256",
          "name": "dueDate",
          "type": "uint256"
        },
        {
          "internalType": "uint256",
          "name": "createdAt",
          "type": "uint256"
        },
        {
          "internalType": "uint256",
          "name": "paidAt",
          "type": "uint256"
        }
      ],
      "stateMutability": "view",
      "type": "function"
    },
    {
      "inputs": [],
      "name": "listInvoices",
      "outputs": [
        {
          "internalType": "string[]",
          "name": "",
          "type": "string[]"
        }
      ],
      "stateMutability": "view",
      "type": "function"
    },
    {
      "inputs": [
        {
          "internalType": "string",
          "name": "id",
          "type": "string"
        },
        {
          "internalType": "address",
          "name": "issuer",
          "type": "address"
        }
      ],
      "name": "markOverdue",
      "outputs": [],
      "stateMutability": "nonpayable",
      "type": "function"
    },
    {
      "inputs": [
        {
          "internalType": "string",
          "name": "id",
          "type": "string"
        },
        {
          "internalType": "address",
          "name": "payer",
          "type": "address"
        },
        {
          "internalType": "uint256",
          "name": "paidAmount",
          "type": "uint256"
        },
        {
          "internalType": "uint256",
          "name": "paidAt",
          "type": "uint256"
        }
      ],
      "name": "markPaid",
      "outputs": [],
      "stateMutability": "nonpayable",
      "type": "function"
    }
  ],
  "bytecode": "0x608060405234801561000f575f80fd5b506128948061001d5f395ff3fe608060405234801561000f575f80fd5b5060043610610091575f3560e01c80635066d4cc116100645780635066d4cc146101075780636affa83f14610123578063cf4b8ac814610141578063e5a57b5214610179578063f906a440146101a957610091565b80630571d670146100955780630a0c0374146100b1578063228d68f6146100cf5780634558d06c146100eb575b5f80fd5b6100af60048036038101906100aa919061188c565b6101d9565b005b6100b961048f565b6040516100c6919061191b565b60405180910390f35b6100e960048036038101906100e49190611934565b610733565b005b61010560048036038101906101009190611934565b610a58565b005b610121600480360381019061011c919061198e565b610d06565b005b61012b6110fc565b6040516101389190611b84565b60405180910390f35b61015b60048036038101906101569190611ba4565b6111d0565b60405161017099989796959493929190611cb5565b60405180910390f35b610193600480360381019061018e9190611d47565b611301565b6040516101a09190611d72565b60405180910390f35b6101c360048036038101906101be9190611ba4565b6113a7565b6040516101d09190611e81565b60405180910390f35b8273ffffffffffffffffffffffffffffffffffffffff163373ffffffffffffffffffffffffffffffffffffffff1614610247576040517f08c379a000000000000000000000000000000000000000000000000000000000815260040161023e90611eeb565b60405180910390fd5b5f80856040516102579190611f43565b908152602001604051809103902090505f73ffffffffffffffffffffffffffffffffffffffff16815f015f9054906101000a900473ffffffffffffffffffffffffffffffffffffffff1673ffffffffffffffffffffffffffffffffffffffff16036102f7576040517f08c379a00000000000000000000000000000000000000000000000000000000081526004016102ee90611fa3565b60405180910390fd5b6001600381111561030b5761030a611c42565b5b816005015f9054906101000a900460ff16600381111561032e5761032d611c42565b5b0361036e576040517f08c379a00000000000000000000000000000000000000000000000000000000081526004016103659061200b565b60405180910390fd5b60038081111561038157610380611c42565b5b816005015f9054906101000a900460ff1660038111156103a4576103a3611c42565b5b036103e4576040517f08c379a00000000000000000000000000000000000000000000000000000000081526004016103db90612073565b60405180910390fd5b8281600401819055506001816005015f6101000a81548160ff0219169083600381111561041457610413611c42565b5b02179055508181600801819055508373ffffffffffffffffffffffffffffffffffffffff16856040516104479190611f43565b60405180910390207fabc3d9da50ac13f6d27d7f21277190acf308ea6206c3b22ff4b33e7a34e40bf48585604051610480929190612091565b60405180910390a35050505050565b5f805f90505f5b60018054905081101561072b575f80600183815481106104b9576104b86120b8565b5b905f5260205f20016040516104ce91906121d4565b9081526020016040518091039020604051806101200160405290815f82015f9054906101000a900473ffffffffffffffffffffffffffffffffffffffff1673ffffffffffffffffffffffffffffffffffffffff1673ffffffffffffffffffffffffffffffffffffffff168152602001600182015f9054906101000a900473ffffffffffffffffffffffffffffffffffffffff1673ffffffffffffffffffffffffffffffffffffffff1673ffffffffffffffffffffffffffffffffffffffff1681526020016002820180546105a190612112565b80601f01602080910402602001604051908101604052809291908181526020018280546105cd90612112565b80156106185780601f106105ef57610100808354040283529160200191610618565b820191905f5260205f20905b8154815290600101906020018083116105fb57829003601f168201915b505050505081526020016003820154815260200160048201548152602001600582015f9054906101000a900460ff16600381111561065957610658611c42565b5b600381111561066b5761066a611c42565b5b815260200160068201548152602001600782015481526020016008820154815250509050600160038111156106a3576106a2611c42565b5b8160a0015160038111156106ba576106b9611c42565b5b141580156106f057506003808111156106d6576106d5611c42565b5b8160a0015160038111156106ed576106ec611c42565b5b14155b1561071757806080015181606001516107099190612217565b83610714919061224a565b92505b5080806107239061227d565b915050610496565b508091505090565b8073ffffffffffffffffffffffffffffffffffffffff163373ffffffffffffffffffffffffffffffffffffffff16146107a1576040517f08c379a00000000000000000000000000000000000000000000000000000000081526004016107989061230e565b60405180910390fd5b5f80836040516107b19190611f43565b908152602001604051809103902090505f73ffffffffffffffffffffffffffffffffffffffff16815f015f9054906101000a900473ffffffffffffffffffffffffffffffffffffffff1673ffffffffffffffffffffffffffffffffffffffff1603610851576040517f08c379a000000000000000000000000000000000000000000000000000000000815260040161084890611fa3565b60405180910390fd5b8173ffffffffffffffffffffffffffffffffffffffff16815f015f9054906101000a900473ffffffffffffffffffffffffffffffffffffffff1673ffffffffffffffffffffffffffffffffffffffff16146108e1576040517f08c379a00000000000000000000000000000000000000000000000000000000081526004016108d890612376565b60405180910390fd5b600160038111156108f5576108f4611c42565b5b816005015f9054906101000a900460ff16600381111561091857610917611c42565b5b03610958576040517f08c379a000000000000000000000000000000000000000000000000000000000815260040161094f9061200b565b60405180910390fd5b60038081111561096b5761096a611c42565b5b816005015f9054906101000a900460ff16600381111561098e5761098d611c42565b5b036109ce576040517f08c379a00000000000000000000000000000000000000000000000000000000081526004016109c590612073565b60405180910390fd5b6003816005015f6101000a81548160ff021916908360038111156109f5576109f4611c42565b5b02179055508173ffffffffffffffffffffffffffffffffffffffff1683604051610a1f9190611f43565b60405180910390207ff853dd21470aaa87fa241292679b8189c331ab0e096622171b5e2432812c155d60405160405180910390a3505050565b8073ffffffffffffffffffffffffffffffffffffffff163373ffffffffffffffffffffffffffffffffffffffff1614610ac6576040517f08c379a0000000000000000000000000000000000000000000000000000000008152600401610abd906123de565b60405180910390fd5b5f8083604051610ad69190611f43565b908152602001604051809103902090505f73ffffffffffffffffffffffffffffffffffffffff16815f015f9054906101000a900473ffffffffffffffffffffffffffffffffffffffff1673ffffffffffffffffffffffffffffffffffffffff1603610b76576040517f08c379a0000000000000000000000000000000000000000000000000000000008152600401610b6d90611fa3565b60405180910390fd5b8173ffffffffffffffffffffffffffffffffffffffff16815f015f9054906101000a900473ffffffffffffffffffffffffffffffffffffffff1673ffffffffffffffffffffffffffffffffffffffff1614610c06576040517f08c379a0000000000000000000000000000000000000000000000000000000008152600401610bfd90612376565b60405180910390fd5b5f6003811115610c1957610c18611c42565b5b816005015f9054906101000a900460ff166003811115610c3c57610c3b611c42565b5b14610c7c576040517f08c379a0000000000000000000000000000000000000000000000000000000008152600401610c7390612446565b60405180910390fd5b6002816005015f6101000a81548160ff02191690836003811115610ca357610ca2611c42565b5b02179055508173ffffffffffffffffffffffffffffffffffffffff1683604051610ccd9190611f43565b60405180910390207f88eb01f4d99523d83ce5d183127eda4d358a33549d715956b9b388e695757c0460405160405180910390a3505050565b8473ffffffffffffffffffffffffffffffffffffffff163373ffffffffffffffffffffffffffffffffffffffff1614610d74576040517f08c379a0000000000000000000000000000000000000000000000000000000008152600401610d6b906124ae565b60405180910390fd5b5f835111610db7576040517f08c379a0000000000000000000000000000000000000000000000000000000008152600401610dae90612516565b60405180910390fd5b5f8211610df9576040517f08c379a0000000000000000000000000000000000000000000000000000000008152600401610df09061257e565b60405180910390fd5b5f73ffffffffffffffffffffffffffffffffffffffff165f87604051610e1f9190611f43565b90815260200160405180910390205f015f9054906101000a900473ffffffffffffffffffffffffffffffffffffffff1673ffffffffffffffffffffffffffffffffffffffff1614610ea5576040517f08c379a0000000000000000000000000000000000000000000000000000000008152600401610e9c906125e6565b60405180910390fd5b6040518061012001604052808673ffffffffffffffffffffffffffffffffffffffff1681526020018573ffffffffffffffffffffffffffffffffffffffff1681526020018481526020018381526020015f81526020015f6003811115610f0e57610f0d611c42565b5b81526020018281526020014281526020015f8152505f87604051610f329190611f43565b90815260200160405180910390205f820151815f015f6101000a81548173ffffffffffffffffffffffffffffffffffffffff021916908373ffffffffffffffffffffffffffffffffffffffff1602179055506020820151816001015f6101000a81548173ffffffffffffffffffffffffffffffffffffffff021916908373ffffffffffffffffffffffffffffffffffffffff1602179055506040820151816002019081610fdf919061278f565b50606082015181600301556080820151816004015560a0820151816005015f6101000a81548160ff0219169083600381111561101e5761101d611c42565b5b021790555060c0820151816006015560e082015181600701556101008201518160080155905050600186908060018154018082558091505060019003905f5260205f20015f909190919091509081611076919061278f565b508373ffffffffffffffffffffffffffffffffffffffff168573ffffffffffffffffffffffffffffffffffffffff16876040516110b39190611f43565b60405180910390207f918ac87f9bb670d01b9d5e1da5039bb68ab2c58a8bd864bdba34ff8729a3a98685856040516110ec929190612091565b60405180910390a4505050505050565b60606001805480602002602001604051908101604052809291908181526020015f905b828210156111c7578382905f5260205f2001805461113c90612112565b80601f016020809104026020016040519081016040528092919081815260200182805461116890612112565b80156111b35780601f1061118a576101008083540402835291602001916111b3565b820191905f5260205f20905b81548152906001019060200180831161119657829003601f168201915b50505050508152602001906001019061111f565b50505050905090565b5f818051602081018201805184825260208301602085012081835280955050505050505f91509050805f015f9054906101000a900473ffffffffffffffffffffffffffffffffffffffff1690806001015f9054906101000a900473ffffffffffffffffffffffffffffffffffffffff169080600201805461125090612112565b80601f016020809104026020016040519081016040528092919081815260200182805461127c90612112565b80156112c75780601f1061129e576101008083540402835291602001916112c7565b820191905f5260205f20905b8154815290600101906020018083116112aa57829003601f168201915b505050505090806003015490806004015490806005015f9054906101000a900460ff16908060060154908060070154908060080154905089565b60018181548110611310575f80fd5b905f5260205f20015f91509050805461132890612112565b80601f016020809104026020016040519081016040528092919081815260200182805461135490612112565b801561139f5780601f106113765761010080835404028352916020019161139f565b820191905f5260205f20905b81548152906001019060200180831161138257829003601f168201915b505050505081565b6113af611630565b5f73ffffffffffffffffffffffffffffffffffffffff165f836040516113d59190611f43565b90815260200160405180910390205f015f9054906101000a900473ffffffffffffffffffffffffffffffffffffffff1673ffffffffffffffffffffffffffffffffffffffff160361145b576040517f08c379a000000000000000000000000000000000000000000000000000000000815260040161145290611fa3565b60405180910390fd5b5f8260405161146a9190611f43565b9081526020016040518091039020604051806101200160405290815f82015f9054906101000a900473ffffffffffffffffffffffffffffffffffffffff1673ffffffffffffffffffffffffffffffffffffffff1673ffffffffffffffffffffffffffffffffffffffff168152602001600182015f9054906101000a900473ffffffffffffffffffffffffffffffffffffffff1673ffffffffffffffffffffffffffffffffffffffff1673ffffffffffffffffffffffffffffffffffffffff16815260200160028201805461153d90612112565b80601f016020809104026020016040519081016040528092919081815260200182805461156990612112565b80156115b45780601f1061158b576101008083540402835291602001916115b4565b820191905f5260205f20905b81548152906001019060200180831161159757829003601f168201915b505050505081526020016003820154815260200160048201548152602001600582015f9054906101000a900460ff1660038111156115f5576115f4611c42565b5b600381111561160757611606611c42565b5b815260200160068201548152602001600782015481526020016008820154815250509050919050565b6040518061012001604052805f73ffffffffffffffffffffffffffffffffffffffff1681526020015f73ffffffffffffffffffffffffffffffffffffffff168152602001606081526020015f81526020015f81526020015f600381111561169a57611699611c42565b5b81526020015f81526020015f81526020015f81525090565b5f604051905090565b5f80fd5b5f80fd5b5f80fd5b5f80fd5b5f601f19601f8301169050919050565b7f4e487b71000000000000000000000000000000000000000000000000000000005f52604160045260245ffd5b611711826116cb565b810181811067ffffffffffffffff821117156117305761172f6116db565b5b80604052505050565b5f6117426116b2565b905061174e8282611708565b919050565b5f67ffffffffffffffff82111561176d5761176c6116db565b5b611776826116cb565b9050602081019050919050565b828183375f83830152505050565b5f6117a361179e84611753565b611739565b9050828152602081018484840111156117bf576117be6116c7565b5b6117ca848285611783565b509392505050565b5f82601f8301126117e6576117e56116c3565b5b81356117f6848260208601611791565b91505092915050565b5f73ffffffffffffffffffffffffffffffffffffffff82169050919050565b5f611828826117ff565b9050919050565b6118388161181e565b8114611842575f80fd5b50565b5f813590506118538161182f565b92915050565b5f819050919050565b61186b81611859565b8114611875575f80fd5b50565b5f8135905061188681611862565b92915050565b5f805f80608085870312156118a4576118a36116bb565b5b5f85013567ffffffffffffffff8111156118c1576118c06116bf565b5b6118cd878288016117d2565b94505060206118de87828801611845565b93505060406118ef87828801611878565b925050606061190087828801611878565b91505092959194509250565b61191581611859565b82525050565b5f60208201905061192e5f83018461190c565b92915050565b5f806040838503121561194a576119496116bb565b5b5f83013567ffffffffffffffff811115611967576119666116bf565b5b611973858286016117d2565b925050602061198485828601611845565b9150509250929050565b5f805f805f8060c087890312156119a8576119a76116bb565b5b5f87013567ffffffffffffffff8111156119c5576119c46116bf565b5b6119d189828a016117d2565b96505060206119e289828a01611845565b95505060406119f389828a01611845565b945050606087013567ffffffffffffffff811115611a1457611a136116bf565b5b611a2089828a016117d2565b9350506080611a3189828a01611878565b92505060a0611a4289828a01611878565b9150509295509295509295565b5f81519050919050565b5f82825260208201905092915050565b5f819050602082019050919050565b5f81519050919050565b5f82825260208201905092915050565b5f5b83811015611aaf578082015181840152602081019050611a94565b5f8484015250505050565b5f611ac482611a78565b611ace8185611a82565b9350611ade818560208601611a92565b611ae7816116cb565b840191505092915050565b5f611afd8383611aba565b905092915050565b5f602082019050919050565b5f611b1b82611a4f565b611b258185611a59565b935083602082028501611b3785611a69565b805f5b85811015611b725784840389528151611b538582611af2565b9450611b5e83611b05565b925060208a01995050600181019050611b3a565b50829750879550505050505092915050565b5f6020820190508181035f830152611b9c8184611b11565b905092915050565b5f60208284031215611bb957611bb86116bb565b5b5f82013567ffffffffffffffff811115611bd657611bd56116bf565b5b611be2848285016117d2565b91505092915050565b611bf48161181e565b82525050565b5f82825260208201905092915050565b5f611c1482611a78565b611c1e8185611bfa565b9350611c2e818560208601611a92565b611c37816116cb565b840191505092915050565b7f4e487b71000000000000000000000000000000000000000000000000000000005f52602160045260245ffd5b60048110611c8057611c7f611c42565b5b50565b5f819050611c9082611c6f565b919050565b5f611c9f82611c83565b9050919050565b611caf81611c95565b82525050565b5f61012082019050611cc95f83018c611beb565b611cd6602083018b611beb565b8181036040830152611ce8818a611c0a565b9050611cf7606083018961190c565b611d04608083018861190c565b611d1160a0830187611ca6565b611d1e60c083018661190c565b611d2b60e083018561190c565b611d3961010083018461190c565b9a9950505050505050505050565b5f60208284031215611d5c57611d5b6116bb565b5b5f611d6984828501611878565b91505092915050565b5f6020820190508181035f830152611d8a8184611c0a565b905092915050565b611d9b8161181e565b82525050565b611daa81611859565b82525050565b611db981611c95565b82525050565b5f61012083015f830151611dd55f860182611d92565b506020830151611de86020860182611d92565b5060408301518482036040860152611e008282611aba565b9150506060830151611e156060860182611da1565b506080830151611e286080860182611da1565b5060a0830151611e3b60a0860182611db0565b5060c0830151611e4e60c0860182611da1565b5060e0830151611e6160e0860182611da1565b50610100830151611e76610100860182611da1565b508091505092915050565b5f6020820190508181035f830152611e998184611dbf565b905092915050565b7f4f6e6c792070617965722063616e206d61726b207061696400000000000000005f82015250565b5f611ed5601883611bfa565b9150611ee082611ea1565b602082019050919050565b5f6020820190508181035f830152611f0281611ec9565b9050919050565b5f81905092915050565b5f611f1d82611a78565b611f278185611f09565b9350611f37818560208601611a92565b80840191505092915050565b5f611f4e8284611f13565b915081905092915050565b7f496e766f696365206e6f7420666f756e640000000000000000000000000000005f82015250565b5f611f8d601183611bfa565b9150611f9882611f59565b602082019050919050565b5f6020820190508181035f830152611fba81611f81565b9050919050565b7f416c7265616479207061696400000000000000000000000000000000000000005f82015250565b5f611ff5600c83611bfa565b915061200082611fc1565b602082019050919050565b5f6020820190508181035f83015261202281611fe9565b9050919050565b7f416c72656164792063616e63656c6c65640000000000000000000000000000005f82015250565b5f61205d601183611bfa565b915061206882612029565b602082019050919050565b5f6020820190508181035f83015261208a81612051565b9050919050565b5f6040820190506120a45f83018561190c565b6120b1602083018461190c565b9392505050565b7f4e487b71000000000000000000000000000000000000000000000000000000005f52603260045260245ffd5b7f4e487b71000000000000000000000000000000000000000000000000000000005f52602260045260245ffd5b5f600282049050600182168061212957607f821691505b60208210810361213c5761213b6120e5565b5b50919050565b5f819050815f5260205f209050919050565b5f815461216081612112565b61216a8186611f09565b9450600182165f81146121845760018114612199576121cb565b60ff19831686528115158202860193506121cb565b6121a285612142565b5f5b838110156121c3578154818901526001820191506020810190506121a4565b838801955050505b50505092915050565b5f6121df8284612154565b915081905092915050565b7f4e487b71000000000000000000000000000000000000000000000000000000005f52601160045260245ffd5b5f61222182611859565b915061222c83611859565b9250828203905081811115612244576122436121ea565b5b92915050565b5f61225482611859565b915061225f83611859565b9250828201905080821115612277576122766121ea565b5b92915050565b5f61228782611859565b91507fffffffffffffffffffffffffffffffffffffffffffffffffffffffffffffffff82036122b9576122b86121ea565b5b600182019050919050565b7f4f6e6c79206973737565722063616e2063616e63656c000000000000000000005f82015250565b5f6122f8601683611bfa565b9150612303826122c4565b602082019050919050565b5f6020820190508181035f830152612325816122ec565b9050919050565b7f4e6f7420746865206973737565720000000000000000000000000000000000005f82015250565b5f612360600e83611bfa565b915061236b8261232c565b602082019050919050565b5f6020820190508181035f83015261238d81612354565b9050919050565b7f4f6e6c79206973737565722063616e206d61726b206f766572647565000000005f82015250565b5f6123c8601c83611bfa565b91506123d382612394565b602082019050919050565b5f6020820190508181035f8301526123f5816123bc565b9050919050565b7f43616e206f6e6c79206d61726b2070656e64696e67206173206f7665726475655f82015250565b5f612430602083611bfa565b915061243b826123fc565b602082019050919050565b5f6020820190508181035f83015261245d81612424565b9050919050565b7f4f6e6c79206973737565722063616e20637265617465000000000000000000005f82015250565b5f612498601683611bfa565b91506124a382612464565b602082019050919050565b5f6020820190508181035f8301526124c58161248c565b9050919050565b7f496e76616c6964206465736372697074696f6e000000000000000000000000005f82015250565b5f612500601383611bfa565b915061250b826124cc565b602082019050919050565b5f6020820190508181035f83015261252d816124f4565b9050919050565b7f496e76616c696420616d6f756e740000000000000000000000000000000000005f82015250565b5f612568600e83611bfa565b915061257382612534565b602082019050919050565b5f6020820190508181035f8301526125958161255c565b9050919050565b7f496e766f69636520494420616c726561647920657869737473000000000000005f82015250565b5f6125d0601983611bfa565b91506125db8261259c565b602082019050919050565b5f6020820190508181035f8301526125fd816125c4565b9050919050565b5f6020601f8301049050919050565b5f82821b905092915050565b5f6008830261264e7fffffffffffffffffffffffffffffffffffffffffffffffffffffffffffffffff82612613565b6126588683612613565b95508019841693508086168417925050509392505050565b5f819050919050565b5f61269361268e61268984611859565b612670565b611859565b9050919050565b5f819050919050565b6126ac83612679565b6126c06126b88261269a565b84845461261f565b825550505050565b5f90565b6126d46126c8565b6126df8184846126a3565b505050565b5b81811015612702576126f75f826126cc565b6001810190506126e5565b5050565b601f8211156127475761271881612142565b61272184612604565b81016020851015612730578190505b61274461273c85612604565b8301826126e4565b50505b505050565b5f82821c905092915050565b5f6127675f198460080261274c565b1980831691505092915050565b5f61277f8383612758565b9150826002028217905092915050565b61279882611a78565b67ffffffffffffffff8111156127b1576127b06116db565b5b6127bb8254612112565b6127c6828285612706565b5f60209050601f8311600181146127f7575f84156127e5578287015190505b6127ef8582612774565b865550612856565b601f19841661280586612142565b5f5b8281101561282c57848901518255600182019150602085019450602081019050612807565b868310156128495784890151612845601f891682612758565b8355505b6001600288020188555050505b50505050505056fea26469706673582212200c32f661bc6fc5b17f8414390111a2453d7555b8a98c9d04af3bab1b1ef45e4864736f6c63430008140033",
  "linkReferences": {},
  "deployedLinkReferences": {},
  "immutableReferences": {},
  "inputSourceName": "project/contracts/PaymentTracking.sol",
  "buildInfoId": "solc-0_8_20-15f3766f333a38dc17a0f9715441a6ef460f1ea2"
}